:100000009BC00000B6C00000B4C00000B2C0000039
:10001000B0C00000AEC00000ACC00000AAC000002C
:10002000A8C00000A6C0000020C50000A2C00000BB
:10003000A0C000009EC000009CC000009AC000004C
:1000400098C0000033C2000094C0000092C00000BD
:1000500090C000008EC000008CC000008AC000006C
:1000600088C0000086C0000084C0000082C000007C
:1000700080C000007EC000007CC000007AC000008C
:1000800078C0000076C0000074C0000072C000009C
:1000900070C000006EC000006CC000006AC00000AC
:1000A00068C0000066C0000064C000001C034C0073
:1000B000550046004100200043004400430020005A
:1000C000440065006D006F000000180344006500E7
:1000D00061006E002000430061006D006500720049
:1000E000610000000403090409023E00020100C08F
:1000F000320904000001020201000524001001047D
:100100002402060524060001070582030800FF09F2
:10011000040100020A0000000705040210000107A4
:100120000583021000011201100102000008EB0318
:10013000442001000102DC0111241FBECFEFDAE0F0
:10014000DEBFCDBF11E0A0E0B1E0E2EBFAE102C01A
:1001500005900D92A63BB107D9F711E0A6EBB1E0EF
:1001600001C01D92A23EB107E1F70E94FF090C9465
:10017000570D46CFCF92DF92EF92FF92C090C4010D
:10018000D090C501E090C601F090C7018CE2C80E86
:1001900081E0D81EE11CF11C00D2C616D706E80685
:1001A000F90670F061E088E099D28FEF9FEFDC01F3
:1001B0008093C4019093C501A093C601B093C70179
:1001C000FF90EF90DF90CF9008958091C4019091BF
:1001D000C501A091C601B091C7018F3F9F4FAF4F9E
:1001E000BF4F61F460E088E079D2D7D16093C40159
:1001F0007093C5018093C6019093C70108953AD1C9
:100200002FEE31E0DC010E940F0A20E034E040E0F4
:1002100050E00E94150A2151314041095109C9019C
:10022000089585E290E0EBDF2091180130911901EB
:100230002F5F3F4F281739070CF49CCFC6CF809112
:10024000C8018F36B9F08337C1F1873609F05AC03B
:100250008091C901853609F05DC08091CA0184375B
:1002600009F058C085E290E0CADF9F938F9381E840
:1002700091E03FC08091C901813309F04BC060918A
:10028000CA016053623008F045C088E027D28091EF
:10029000CA0190E0C0979F938F931F9288E08F933D
:1002A0008EE891E09F938F930E94CA0A0F900F905F
:1002B0000F900F900F900F9008952091C901822FF9
:1002C00080538A3038F58091CA01982F90539A3024
:1002D00008F590E03AE0239F800D911D1124805194
:1002E000924090931901809318019F938F938BE90B
:1002F00091E09F938F930E94CA0A0F900F900F90E6
:100300000F9008958CEA91E09F938F930E94CA0A00
:100310000F900F900895CF93DF938091DC0190911F
:10032000DD010E945E0AEC0197FD1EC06091DE01B6
:100330007091DF010E949E0AC636D10529F4109201
:100340001B0110921A0110C080911A0190911B019B
:100350008330910548F4FC01E853FE4FC0830196B9
:1003600090931B0180931A0180911A0190911B01B7
:10037000039739F464DF8FEF9FEF90931B01809315
:100380001A01DF91CF91089546978131910540F48C
:10039000FC01E85BFE4F2081332727FD309502C02A
:1003A0002FEF3FEFC9010895ECE7F0E090818295CF
:1003B000880F880F807C9F73892B8083089583E04A
:1003C00090E0F2CF80E090E0EFCF81E090E0ECCFE2
:1003D000DBDF9C0197FD17C040917C008F7099274F
:1003E000407C482B40937C00C901807F9927892B52
:1003F00021F080917B00806203C080917B008F7D23
:1004000080937B0002C02FEF3FEFC9010895D7DF33
:10041000ECE7F0E08081807C87608083EBE7F0E0B0
:1004200080818062808387E290E0089580917A00E5
:10043000806880937A0080917A00806480937A004B
:1004400080917A0086FDFCCF209178003091790070
:1004500080917A008F7780937A00932F80E0AC01AF
:10046000422B9A01C9010895EAE7F0E08081876094
:100470008083A5CFADDF97FFD9CF8FEF9FEF089592
:100480000895E1E8F0E080818860808380E49FE166
:100490009093890080938800808181608083EFE65B
:1004A000F0E0808182608083789408951F920F929B
:1004B0000FB60F9211248F939F9380911C019091FE
:1004C0001D01019690931D0180931C0180911C01D8
:1004D00090911D01892BC1F48091CD019091CE01A5
:1004E00001969093CE018093CD018091CD019091A2
:1004F000CE01892B49F48091CB019091CC010196DA
:100500009093CC018093CB019F918F910F900FBE60
:100510000F901F9018950F931F93CF93DF9300D0E8
:1005200000D0CDB7DEB720911C0130911D01809124
:10053000CD019091CE014091CB015091CC01A0E032
:10054000B0E06FE0880F991FAA1FBB1F6A95D1F713
:1005500036952795820F931FA11DB11D60E070E0B5
:10056000772746957795662755274427840F951F4B
:10057000A61FB71F89839A83AB83BC8309811A8125
:100580002B813C81B801C9010F900F900F900F9003
:10059000DF91CF911F910F910895CF92DF92EF924B
:1005A000FF926091CD017091CE0120911C0130919C
:1005B0001D01CB01A0E0B0E077276627620F731F13
:1005C000811D911D20ED37E040E050E02ED76901FC
:1005D0007A016091CB017091CC01CB01A0E0B0E039
:1005E0007727662728EE33E040E050E01ED7D90198
:1005F00099278827C80ED91EEA1EFB1EB601C7011F
:10060000FF90EF90DF90CF9008958F929F92AF92DE
:10061000BF92CF92DF92EF92FF926C017CDF4B0191
:100620005C01E12CF12C77DF681979098A099B09B3
:100630006C157D058E059F05B0F3FF90EF90DF9060
:10064000CF90BF90AF909F908F9008958932910581
:100650008CF4FC01E85AFE4FE081F0E084E0F5956F
:10066000E7958A95E1F7EE0FFF1FE65CFE4F2081CC
:10067000318102C020E030E0C9010895893291053E
:100680008CF4FC01E85AFE4FE081F0E024E0F5959F
:10069000E7952A95E1F7EE0FFF1FE45DFE4F2081FD
:1006A000318102C020E030E0C9010895893291050E
:1006B0008CF4FC01E85AFE4FE081F0E044E0F5954F
:1006C000E7954A95E1F7EE0FFF1FE25EFE4F2081AE
:1006D000318102C020E030E0C9010895CF93DF935B
:1006E000893248F5C82FD0E0CE01662381F0AEDF15
:1006F000FC014081C85ADE4F58815F7021E030E034
:10070000052E01C0220F0A94EAF7422B10C09EDF8B
:10071000FC014081C85ADE4F58815F7021E030E013
:10072000052E01C0220F0A94EAF720954223408348
:1007300020E030E002C02FEF3FEFC901DF91CF9101
:100740000895CF93DF93893248F5C82FD0E0CE01CA
:10075000662381F0ABDFFC014081C85ADE4F58812F
:100760005F7021E030E0052E01C0220F0A94EAF705
:10077000422B10C09BDFFC014081C85ADE4F5881DC
:100780005F7021E030E0052E01C0220F0A94EAF7E5
:1007900020954223408320E030E002C02FEF3FEF5E
:1007A000C901DF91CF910895CF93DF93893298F4F7
:1007B000C82FD0E0CE0162DFFC01208130E0C85AB2
:1007C000DE4F88818F7002C0359527958A95E2F7B4
:1007D0002170332702C02FEF3FEFC901DF91CF9186
:1007E000089580E091E0F0D42CC490E080E80FB64A
:1007F000F89480936100909361000FBE1EC1F5DFF5
:1008000066EB71E080E091E02FD586EB91E090936C
:10081000DF018093DE019093DD018093DC01089578
:10082000089580E091E01FC480E091E031C5292F58
:1008300033272230310539F02330310549F021309A
:10084000310521F128C0EEE3F0E088EE90E027C00A
:1008500099278130910561F08230910581F0892BD3
:10086000D1F4E4EEF0E0E491F0E084EE90E017C023
:10087000EAECF0E0E491F0E08AEC90E010C0ECEA01
:10088000F0E0E491F0E08CEA90E009C0E2E1F0E011
:1008900086E291E004C0E0E0F0E080E090E0DA0180
:1008A0008D939C93CF010895982F2CC09093E900CD
:1008B000981739F07091EC002091ED005091F00004
:1008C00003C0242F762F50E021FD02C09F5F1AC085
:1008D0003091EB003E7F3093EB003091ED003D7F97
:1008E0003093ED003091EB0031603093EB0070936A
:1008F000EC002093ED005093F0002091EE0027FDD6
:10090000E5CF06C0973090F28093E90081E008952A
:1009100080E008958091D40187FD05C08091E800B2
:1009200080FF0EC012C08091E80082FD05C080915A
:10093000D3018111F8CF08958091E8008B7708C02A
:100940008091D3018111EACF08958091E8008E77DC
:100950008093E80008958091E4009091E50045E6D9
:100960002091EC0020FD1FC023C02091D301222341
:1009700091F0253091F02091EB0025FD10C02091E1
:10098000E4003091E5002817390751F34150C901BF
:1009900039F784E0089582E0089583E0089581E0C6
:1009A000089580E008952091E80020FFDECFF9CF80
:1009B0002091E80022FFD9CFF4CF0F931F93CF935C
:1009C000DF9346D04DD0C8EDD0E088818F77888303
:1009D00088818068888388818F7D888319BC109284
:1009E000D3011092CF011092D1011092D00100EEEC
:1009F00010E0F80180818B7F80838881816088830B
:100A000042E060E080E050DFE1EEF0E080818E7F48
:100A10008083E2EEF0E08081816080838081886065
:100A20008083F80180818E7F8083888180618883C4
:100A3000DF91CF911F910F910895E7EDF0E0808154
:100A40008160808384E082BF81E08093D201B5CF52
:100A5000E8EDF0E080818E7F80831092E2000895BF
:100A60001092DA001092E10008951F920F920FB6D3
:100A70000F9211242F933F934F935F936F937F9324
:100A80008F939F93AF93BF93EF93FF938091E10078
:100A900082FF0AC08091E20082FF06C08091E100DF
:100AA0008B7F8093E100CCD28091DA0080FF1DC063
:100AB0008091D80080FF19C08091DA008E7F8093EA
:100AC000DA008091D90080FF0CC080E189BD82E10D
:100AD00089BD09B400FEFDCF81E08093D301B0D27F
:100AE00004C019BC1092D3019BDE8091E10080FF0D
:100AF00018C08091E20080FF14C08091E2008E7FD8
:100B00008093E2008091E20080618093E200809116
:100B1000D80080628093D80019BC85E08093D3010F
:100B20008FD28091E10084FF2DC08091E20084FF8C
:100B300029C080E189BD82E189BD09B400FEFDCFF5
:100B40008091D8008F7D8093D8008091E1008F7EC6
:100B50008093E1008091E2008F7E8093E20080919B
:100B6000E20081608093E2008091CF01811104C096
:100B70008091E30087FF02C084E001C081E08093A0
:100B8000D3015ED28091E10083FF22C08091E20018
:100B900083FF1EC08091E100877F8093E10082E0A7
:100BA0008093D3011092CF018091E1008E7F8093DA
:100BB000E1008091E2008E7F8093E2008091E2006C
:100BC00080618093E20042E060E080E06DDE38D238
:100BD000FF91EF91BF91AF919F918F917F916F9115
:100BE0005F914F913F912F910F900FBE0F901F90EB
:100BF00018954091DA015091DB014617570748F0EC
:100C00006115710539F44091E8004E774093E80092
:100C100001C0BA01FC0140E033C08091D3018823B8
:100C200009F442C0853009F441C08091E80083FD99
:100C300039C08091E80082FD2FC08091E80080FFDC
:100C40001FC09091F3008091F200392F20E0A9019C
:100C5000482BCA0106C041914093F10061507109CF
:100C600001966115710519F088309105A0F341E0F6
:100C7000089709F040E08091E8008E778093E800C3
:100C80006115710551F64111C8CF06C08091D3019D
:100C9000882351F0853051F08091E80082FFF6CF33
:100CA00080E0089581E0089582E0089583E008954A
:100CB0004091DA015091DB014617570748F0611562
:100CC000710539F44091E8004E774093E80001C087
:100CD000BA01FC0140E034C08091D301882309F4BB
:100CE00043C0853009F442C08091E80083FD3AC0DA
:100CF0008091E80082FD30C08091E80080FF20C034
:100D00009091F3008091F200392F20E0A901482B47
:100D1000CA0107C044914093F100319661507109B6
:100D200001966115710519F08830910598F341E03D
:100D3000089709F040E08091E8008E778093E80002
:100D40006115710549F64111C7CF06C08091D301E5
:100D5000882351F0853051F08091E80082FFF6CF72
:100D600080E0089581E0089582E0089583E0089589
:100D7000EF92FF920F931F93CF93DF93CDB7DEB720
:100D8000AC970FB6F894DEBF0FBECDBFE4EDF1E037
:100D90008091F100819321E0EC3DF207C9F744DD39
:100DA0008091E80083FF31C18091D4019091D501F9
:100DB000953009F487C038F49130B1F170F0933078
:100DC00009F023C131C0983009F4F4C0993009F416
:100DD00000C1963009F019C19CC0803821F08238DA
:100DE00009F013C108C08091D0019091D1019923DD
:100DF00089F082600FC08091D8019091D9018F70E5
:100E000099278093E9008091EB0085FB882780F982
:100E10001092E9009091E800977F9093E80080930A
:100E2000F1001092F100D1C0882319F0823009F04E
:100E3000ECC08F7121F0823009F0E7C00BC08091C7
:100E4000D601813009F0E1C0933009F080E0809351
:100E5000D1012FC08091D60181112BC08091D80182
:100E60009091D9018F709927009709F4CEC0809393
:100E7000E9002091EB0020FF1CC02091D501233018
:100E800021F48091EB00806212C09091EB009061A0
:100E90009093EB0021E030E001C0220F8A95EAF741
:100EA0002093EA001092EA008091EB008860809322
:100EB000EB001092E9008091E800877F8093E800C2
:100EC00029DDA3C08111A1C00091D6011091D701E5
:100ED0000F771127E02EFFB6F8948091E800877F06
:100EE0008093E80017DD8091E80080FFFCCF8091BF
:100EF000E3008078802B8093E30080688093E30098
:100F0000EE2011F083E001C082E08093D301FFBEA8
:100F10007CC08058823008F078C08091D6019091D2
:100F2000D7018C3D23E0920771F583E08A838AE242
:100F300089834FB7F894DE01139620E03EE051E23A
:100F4000E32FF0E050935700E49120FF03C0E295B7
:100F5000EF703F5FEF708E2F90E0EA3010F0C79691
:100F600001C0C0968D939D932F5F243149F74FBFE9
:100F70008091E800877F8093E8006AE270E0CE010C
:100F8000019637DE11C0AE01455D5F4F6091D8011B
:100F90004EDC0097D1F12091E800277F2093E800F4
:100FA000BC018BA59CA584DE8091E8008B778093A3
:100FB000E8002BC0803849F58091E800877F809356
:100FC000E8008091CF018093F1008091E8008E7756
:100FD00075CF81111AC09091D6019230B0F48091F2
:100FE000E800877F8093E8009093CF0193DC8091A5
:100FF000CF01811104C08091E30087FF02C084E02B
:1010000001C081E08093D3010CDC8091E80083FF74
:101010000AC08091EB0080628093EB008091E80031
:10102000877F8093E800AC960FB6F894DEBF0FBEC2
:10103000CDBFDF91CF911F910F91FF90EF90089559
:101040000895CF938091D301882359F0C091E9008E
:10105000CF701092E9008091E80083FD89DEC09393
:10106000E900CF9108951F93CF93DF93EC010D9684
:10107000FC018BE0DF011D928A95E9F711E089817F
:10108000181305C02A813B814C8180E807C08D81FF
:10109000181306C02E813F81488580E092E00DC084
:1010A0008985181729F01F5F173049F781E025C09F
:1010B0002A853B854C8580E893E0442311F044E089
:1010C00001C040E0E8E0F0E050E003C05F5FEE0FF9
:1010D000FF1FE217F307D0F342605295507F452B74
:1010E000B0E49B9F9001112461E0811101C060E098
:1010F000622B812FD9DB8111D6CFDF91CF911F9148
:101100000895CF93C62F2091D3012430E9F4FC0138
:101110004189528963897489452B462B472BA1F05D
:1011200081818093E9008091E80085FF04C0C0932D
:10113000F10080E00AC08091E8008E778093E8009B
:101140000ADC8823A1F301C082E0CF910895FB015E
:10115000682F84859585D5DF882319F02FEF3FEF21
:1011600002C020E030E0C90108952091D30124306D
:1011700049F5FC014189528963897489452B462BC5
:10118000472B01F181818093E9003091F300209198
:10119000F200932F80E0822B892B11F480E00895D8
:1011A0009091E8008091E8008E778093E80095FDAB
:1011B000F5CFD1DB811107C09091E8009E77909325
:1011C000E800089582E008952091D301243051F47D
:1011D000FC014189528963897489452B462B472B31
:1011E00009F0C3CF08952091D301243019F02FEFD7
:1011F0003FEF2DC0FC014189528963897489452BD9
:10120000462B472BA1F385818093E9008091E8006C
:1012100082FFEDCF3091F3002091F200932F80E018
:10122000822B892B21F02091F10030E002C02FEFBA
:101230003FEF5091F3004091F200952F80E0842B16
:10124000892B29F48091E8008B778093E800C9010D
:101250000895FC0184859585C6DF9C0197FF02C037
:101260002EEF3FEFC9010895FB012EE0DB011D9237
:101270002A95E9F723E0238327EA38E0318720879E
:1012800029E239E033872287958784870895089576
:101290000F931F93CF93DF93EC018091E80083FFBE
:1012A000A9C0888190E02091D8013091D9012817F8
:1012B000390709F09FC08091D501813261F020F497
:1012C000803209F097C03FC0823209F46BC083328C
:1012D00009F090C07DC08091D401813A09F08AC0A4
:1012E0008091E800877F8093E8008091E80080FF8C
:1012F000FCCF49895A896B897C894093F100052F7D
:10130000162F272F33270093F1008B012227332735
:101310000093F100472F5527662777274093F10068
:101320008D898093F1008E898093F1008F8980935D
:10133000F1008091E8008E778093E800DF91CF91F3
:101340001F910F91E7CA8091D401813209F052C0F8
:101350008091E800877F8093E8008091E80082FF19
:10136000FCCF3091F1002091F1009091F10080913B
:10137000F100398B2A8B9B8B8C8B8091F1008D8BAC
:101380008091F1008E8B8091F1008F8B8091E8002D
:101390008B778093E800BEDACE01DF91CF911F9169
:1013A0000F9175CF8091D401813221F58091E800B1
:1013B000877F8093E800AEDA8091D6019091D701C3
:1013C0009E878D87CE01DF91CF911F910F915FCFC7
:1013D0008091D401813271F48091E800877F8093FD
:1013E000E80098DA6091D601CE01DF91CF911F918C
:1013F0000F914DCFDF91CF911F910F910895FFD99C
:1014000040D832D80E94E50185E290E00E94E801D0
:1014100061E088E096D9E5D90E948B01FCCF20D00D
:10142000B7FF0895821B930B0895052E97FB16F4C2
:10143000009406D057FD0CD01FD007FC09D07EF4D5
:1014400090958095709561957F4F8F4F9F4F089530
:1014500050954095309521953F4F4F4F5F4F0895E0
:10146000A29FB001B39FC001A39F01D0B29F700D96
:10147000811D1124911D0895A1E21A2EAA1BBB1BE8
:10148000FD010DC0AA1FBB1FEE1FFF1FA217B30750
:10149000E407F50720F0A21BB30BE40BF50B661F66
:1014A000771F881F991F1A9469F76095709580952A
:1014B00090959B01AC01BD01CF010895CF93DF93BF
:1014C000EC013B8130FF34C036FF0AC03F7B3B83D9
:1014D0008E819F8101969F838E832A8130E02AC06E
:1014E00032FF0FC0E881F9818081992787FD9095AF
:1014F000009719F430623B831BC03196F983E8836F
:101500000EC0EA85FB85099597FF09C02B810196DE
:1015100011F480E101C080E2822B8B8309C02E810F
:101520003F812F5F3F4F3F832E839C01332702C0B3
:101530002FEF3FEFC901DF91CF9108950F931F93D4
:10154000CF93DF938C01EB018B8181FD03C00FEF03
:101550001FEF1AC082FF0DC02E813F818C819D81BB
:101560002817390764F4E881F9810193F983E88346
:1015700006C0E885F985802F0995892B41F78E8172
:101580009F8101969F838E83C801DF91CF911F9128
:101590000F910895A2E0B0E0EFECFAE061C2FE0125
:1015A000379661917191FA83E983AF018091DE01F1
:1015B0009091DF0103D02296E2E06EC2ACE0B0E091
:1015C000E3EEFAE03DC27C016B018A01FC01178267
:1015D0001682838181FFBAC188248394912C8C0E5A
:1015E0009D1EF7019381F60193FD859193FF8191F3
:1015F0006F01882309F4A6C1853239F493FD8591E2
:1016000093FF81916F01853221F4B70190E096DF5D
:10161000E8CF712C312C20E02032A8F48B3261F01D
:1016200028F4803251F0833271F40BC08D3239F0DE
:10163000803349F4216028C02260246025C02860DE
:1016400023C0206121C027FD27C0382F30533A30F6
:1016500078F426FF06C0FAE07F9E300D1124732E29
:1016600013C08AE0389E300D1124332E20620CC046
:101670008E3221F426FD66C1206406C08C3611F43A
:10168000206802C0883641F4F60193FD859193FFEE
:1016900081916F018111C0CF982F9554933018F02C
:1016A0009052933028F40C5F1F4FFFE3F9830DC075
:1016B000833631F0833771F0833509F05AC022C088
:1016C000F801808189830E5F1F4F66246394712C1B
:1016D000540114C02801F2E04F0E511CF801A08003
:1016E000B18026FF03C0672D70E002C06FEF7FEF6F
:1016F000C5012C873CD13C0182012C856FE7262E49
:10170000222217C02801F2E04F0E511CF801A080E0
:10171000B18026FF03C0672D70E002C06FEF7FEF3E
:10172000C5012C8719D13C012C8550E8252E222A91
:10173000820123FC1AC005C0B70180E290E0FEDE02
:101740003A94832D90E068167906B0F30EC0F50147
:1017500027FC859127FE81915F01B70190E0EEDEC5
:1017600031103A94F1E06F1A71086114710479F73D
:10177000E6C0843611F0893639F5F80127FF07C035
:1017800060817181828193810C5F1F4F08C06081ED
:101790007181882777FD8095982F0E5F1F4F4FE648
:1017A000642E622297FF09C090958095709561958F
:1017B0007F4F8F4F9F4FF0E86F2A2AE030E0A4015F
:1017C000E1D0A82EA81843C0853731F43FEEB32EE0
:1017D000B2222AE030E024C099EFB92EB2228F362F
:1017E000B9F020F4883509F0ADC00DC0803721F084
:1017F000883709F0A7C002C020E1B22AB4FE0BC0AE
:1018000084E0B82A08C024FF09C0E6E0BE2A06C06A
:1018100028E030E005C020E130E002C020E132E005
:10182000F801B7FE07C060817181828193810C5FEE
:101830001F4F06C06081718180E090E00E5F1F4FF6
:10184000A401A0D0A82EA8188FE7682E6B2066FEF2
:101850000BC0362D3E7FA71450F464FE0AC062FC14
:1018600008C0362D3E7E05C0BA2C362D03C0BA2CDA
:1018700001C0B72C34FF0DC0FE01EA0DF11D8081BF
:10188000803311F4397E09C032FF06C0B394B3949B
:1018900004C0832F867809F0B39433FD13C030FF62
:1018A0000EC07A2CB31458F4730C7B18B32C07C0F9
:1018B000B70180E290E03C8741DEB3943C85B314ED
:1018C000B8F304C0B31410F43B1801C0312C34FF3A
:1018D00011C0B70180E390E03C8730DE3C8532FFE9
:1018E0001CC031FF03C088E590E002C088E790E0AB
:1018F000B7010CC0832F867881F031FD02C080E2F1
:1019000001C08BE237FD8DE2B70190E017DE05C024
:10191000B70180E390E012DE7A94A714C8F3AA948A
:10192000F401EA0DF11DB701808190E007DEA110FE
:10193000F6CF05C0B70180E290E000DE3A943110A6
:10194000F9CF4FCEF7012681378102C02FEF3FEF4D
:10195000C9012C96E2E190C0FC01059061507040F5
:101960000110D8F7809590958E0F9F1F0895FC0168
:101970006150704001900110D8F7809590958E0FBE
:101980009F1F0895FA01AA27283051F1203181F1D3
:10199000E8946F936E7F6E5F7F4F8F4F9F4FAF4F77
:1019A000B1E03ED0B4E03CD0670F781F891F9A1F8A
:1019B000A11D680F791F8A1F911DA11D6A0F711D3E
:1019C000811D911DA11D20D009F468943F912AE04A
:1019D000269F11243019305D3193DEF6CF01089532
:1019E000462F4770405D4193B3E00FD0C9F7F6CF63
:1019F000462F4F70405D4A3318F0495D31FD40522B
:101A0000419302D0A9F7EACFB4E0A69597958795C0
:101A100077956795BA95C9F700976105710508959F
:101A20009B01AC010A2E069457954795379527954B
:101A3000BA95C9F7620F731F841F951FA01D0895E3
:101A40002F923F924F925F926F927F928F929F92CE
:101A5000AF92BF92CF92DF92EF92FF920F931F93BC
:101A6000CF93DF93CDB7DEB7CA1BDB0B0FB6F8946D
:101A7000DEBF0FBECDBF09942A88398848885F84AD
:101A80006E847D848C849B84AA84B984C884DF801E
:101A9000EE80FD800C811B81AA81B981CE0FD11D02
:101AA0000FB6F894DEBF0FBECDBFED010895F894D8
:021AB000FFCF66
:101AB20000031000000410000002080000000000F3
:101AC20000000000000000001400FFFF0100000001
:101AD2000000240027002A002D0030000000000032
:101AE2002300260029002C002F0000000000250002
:101AF20028002B002E003100202122232425FFFF65
:101B0200FFFFFF0706050401005600000000000069
:101B12002021222327000000404142434500444641
:101B22004744454647520036006765666461600077
:101B32000074656D702069732025640A0D00706958
:101B42006E202564202564200A0D00736574706F71
:101B5200696E742069732025640A0D006572726FC4
:061B620072200A0D0000D4
:00000001FF
